:020000040000fa
:080000000002040000000000f2
:020000040000fa
:10040000ef9b21000efb27000e018800000000007a
:100410000c000700c0e02c00010020001f000700b6
:10042000000020000000e000020032000000020096
:1004300000000000401f0200010000000040da0040
:100440000000fe004440a90060ab20000000e00076
:100450000300320000002000a00188004440a800f2
:1004600000000600f03fb1000180b1000600350039
:10047000ee03090000000000403fb1000180b10020
:10048000fbff3d001000b000203fb000020035002f
:1004900000800900000000000000060091018800b3
:1004a000800078000000eb0015003700e28040007b
:1004b00032a0b4009101ba00e280400032a0b40042
:1004c0009102ba00e280400032a0b4000002eb00ca
:1004d000472bde00f507b200602ce10004003a0073
:1004e0000059eb008301e900fdff3e0004003700e6
:1004f0006128e100010032000082eb0004000700e7
:100500001101ba000200e000e8ff3a000000060016
:100510003159ba008301e9000c0032002159ba00b8
:100520008301e900080032000400e00003003a0003
:10053000e280400032a0b400f5ff370011d9ba00c4
:100540008301e900faff3a008100e800e180400001
:1005500032a0b400000006008ed5040000000000a8
:1005600096d5040000000000d6d50400000000006d
:1005700044d604000000000088d6040000000000fb
:10058000c8d604000000000010d7040000000000de
:10059000dce2040000000000a8e20400000000000b
:1005a00024e3040000000000d80a04000100000059
:1005b000f40a040001000000c60a04000100000063
:1005c000040b0400010000001a0b040001000000ed
:1005d000500b040001000000940b04000100000017
:1005e000ba0b040001000000621a040001000000c0
:1005f000cee504000000000078e8040000000000e0
:1006000020e704000000000030e7040000000000c4
:1006100046e7040000000000f4e7040000000000ca
:1006200092e7040000000000d0e704000000000092
:10063000dce704000000000004e804000000000003
:1006400018e80400000000003ee80400000000007c
:100650006ce804000000000032e804000000000024
:100660007ee8040000000000dcda04000000000066
:10067000fad70400000000005cd90400000000006c
:100680004cda04000000000078d9040000000000eb
:100690008ed90400000000003cda040000000000d5
:1006a000dad904000000000018da0400000000009d
:1006b00024da0400000000007cda040000000000de
:1006c000a2da040000000000d0da040000000000fc
:1006d00096da040000000000e2da040000000000e6
:1006e0000e1a0400010000002014040001000000a4
:1006f000c20c04000100000096ee0400000000009f
:10070000d807040000000000d00904000000000029
:10071000080a0400000000000e0c040000000000a5
:100720000040da000000fe001200fa0060079800a6
:1007300071079800020f98000022200040079800df
:100740002022200030079800602220002007980017
:1007500080222000100798006e009000600040008a
:10076000e20f50003d003e0090cd8000e20f5000af
:1007700008003a00002320004007980020232000b2
:100780003007980060232000200798008023200075
:10079000100798004e0090009040900000c8b300f1
:1007a00000c060000004e00008003a009e009000d5
:1007b0000000eb00800878004e019000924090000d
:1007c00000c8b30000c07000104198000e089000ef
:1007d000500798001a003700000a2000000f780028
:1007e000010037001e0fe9003e0090001040780025
:1007f000614060000004e00002003a001e00e000da
:10080000f8ff3a003e009000104078006140600020
:100810000004e0000d003200fe0090002e00900069
:1008200010007800804878007e0090000000e8000a
:10083000700798005e0090000000e90050079800e3
:100840005e0090000000e000e3ff3a005e009000d0
:100850008e08900000805000000f98000e08900055
:100860000080fa00000006001400fa00500798000b
:100870006107980072079800002220003007980056
:100880002022200020079800402220001007980016
:1008900080222000000f78005e009000100f98006a
:1008a0001e089000e30f50001a0032001e0890004e
:1008b000e30f500004003c001e0890000000e00020
:1008c00011003500040037001e089000e40f5000ae
:1008d000100032000c00370090cd8000e20f500075
:1008e0000c003a000023200030079800202320004d
:1008f0002007980040232000100798008023200044
:10090000000f7800030037000000eb00000f980094
:100910002f0037003e0090009040900000c8b300c8
:1009200000c060000004e00008003a009e0078006b
:100930000000eb00800878003e019000924090009b
:1009400000c8b30000c07000104198002e00900055
:1009500010409000644060000004e00004003a0091
:100960002e009000904090000124a00011409800bb
:100970007e00900040079800100037002e00900085
:1009800010409000614060000004e000fbff320076
:100990006e009000104078008000fb001e00900068
:1009a000010878006e0090000000e80060079800e1
:1009b0004e0090000000e900400798004e009000b3
:1009c0000000e000edff3a007e009000000f98006c
:1009d0000e0890000080fa000000060004003700b6
:1009e0000204e00001003a00000005000000e800f9
:1009f00010417800814f5100f9ff3a0000000600d5
:100a000081282100990207000000e000060035005f
:100a100081282100a0002000da0207008000eb00fe
:100a20000000e00001003d008080eb000100780044
:100a3000000006000098be000298be000498be00a8
:100a40000698be000898be000a98be000c98be002a
:100a50000e18780064985700efb8970001187800d6
:100a6000ffb8970001187800000005000100e000c1
:100a700001003a0011002000010878007c004000cd
:100a80003007be00b01f7800a01f7800640050003f
:100a90004006be004005be004004be004003be004c
:100aa0004002be004001be004000be000000060043
:100ab000889fbe0080047800010478000100e000f7
:100ac000090032000126210040632100670207006f
:100ad0000126210008007800640207000126210099
:100ae000106421006102070001262100090078003e
:100af0005e02070001262100606421005b020700fe
:100b00000000eb00c50207001000200000030700f2
:100b1000100020004103070080007800010037002a
:100b20000000e8001004e000fdff3a000100500062
:100b300000000600800078001106b10003003500b7
:100b40009101b10001003c000050a100000006002e
:100b50000200fa00889fbe008a9fbe008c1f7800aa
:100b60008005780001057800020678000100e000a9
:100b700001003a006c8557000b0478000100370033
:100b80000804e800984478000900fb0035030700da
:100b90000000e000faff3a00d0c2b30080cf54005a
:100ba0000500320000c0e90080cf5400020032008e
:100bb00080447800010037000804e8000c01780048
:100bc0008a007800080078005a0107000001be0082
:100bd0009a0f540001003a000b0d78009a8f5500cf
:100be00003003a00e00f5100e08f59000f003a0077
:100bf000b0c2b30080cf540004003a00e00f5100af
:100c0000e08f590015003d0008003700d0c2b30046
:100c100080cf540011003a0000002000010028009d
:100c2000800f5100818f59000a00360020022000f9
:100c30004040880002002000030028006b40400074
:100c400080cf540005003200f2ff2f00f3ff270091
:100c50000200370060011100e08119000200be00af
:100c60004f0678004f05be004f04be000080fa001a
:100c7000000006000e00fa00889fbe008a9fbe009a
:100c80008c1f7800a0bf9f00010478000205be0001
:100c9000800478006c805700fa0207006806600044
:100ca0000030a100e10f500014003a00afb89700e7
:100cb00000027800f48157000801780009007800ec
:100cc000750307000000e00002003a006000b80071
:100cd000030037000fb897009fb897003610070041
:100ce000c0b79f00d1b79f006fb19700ffb19700c9
:100cf0000a0141008b81490016003700e20f5000c5
:100d000018003a00afb8970014002000f481570093
:100d10000801780009007800410407000000e000a5
:100d200002003a006000b800030037000fb89700d7
:100d30009fb8970020100700c0b79f00d1b79f0051
:100d40006fb19700ffb19700788057002905070021
:100d50000a01be004fb09700dfb09700950507006d
:100d60000d003700e30f500003003a0000002000a0
:100d700001f8270004003700e40f500005003a0096
:100d8000f0ff2f00f1ff2700c0b79f00d1b79f00f1
:100d9000030037006000b800c0b79f00d1b79f00c4
:100da0004fb09700dfb097000c00e0000100320068
:100db00001f0a2004f0678004f05be004f04be00b0
:100dc0000080fa0000000600040037000204e00082
:100dd0000a0032000000e8008100e80010417800bd
:100de000914f5100f9ff32000081eb001040780074
:100df000914f500004003900020037000001eb0061
:100e000001003700120020000200780000000600f8
:100e1000800178008002eb000100370084597800df
:100e200005035100828f52000900320065c278002c
:100e30008502e8000404e000f8ff3a00830078002f
:100e4000068141008058eb00828f5000fdff3a0080
:100e500000000600889fbe0080047800010478002e
:100e6000d20507000001780080c1eb0088007800ff
:100e700009007800ec0507004f04be0000000600e2
:100e8000881f7800489b21001804e00004003a0005
:100e9000807d20003f06070020c0b300004c780092
:100ea0004f04780000000600889fbe000004780010
:100eb000da010700800478000004200018006000b8
:100ec00002003200280090003f0607000000eb00ff
:100ed00020049800384090000004e0000500350030
:100ee0000000fb00a70a07000000e000010032003c
:100ef0008084eb00181090000000e0000800320031
:100f0000a90a07000000e000010032008084eb0025
:100f1000181090002c0607000000eb001014980039
:100f20000008200018006000100032000000eb00f4
:100f300001252100910f1400070032000000e80095
:100f40008180e800e80f5000faff3a0008007800be
:100f50001d06070013003700000140008000eb0071
:100f60000025210001307900f8ff3700000c7800df
:100f700000c0eb00304498006002200008004000f0
:100f8000200498004004980050049800400c9800f9
:100f900060049800500c980070049800760044009b
:100fa000000c9800090078004f04be000000060005
:100fb000881f7800e8252100180078000000e00074
:100fc00001003200b8ff07000884e900e024210096
:100fd000800f5400f8ff3a004f047800000006002c
:100fe000889fbe008a9fbe008c9fbe008e1f780027
:100ff0008106780083047800000678000288b90032
:10100000000778000000e00002003a0000017800cc
:10101000420037000d00e00040003200000578007b
:10102000c900900069009000808f500004003900d2
:1010300009007800180607000000e00029003500cc
:10104000004020001900600003003a000a04780004
:10105000800578000b0037000a017800a10020000d
:101060000c0078004f060700800578000000e000c3
:1010700002003a000a047800020037000c00500019
:101080000004e800c90190006900900003005000ce
:10109000880f500002003100000478008005eb004a
:1010a000080178008c0078000300780038050700fc
:1010b000080646000805550049009000000044005d
:1010c000c00498000b00e000040032000900780022
:1010d000520107000000e00002003a000a00e000b0
:1010e000cfff3a00008020001900600002003200ab
:1010f000090078004901070000c0200019006000c5
:101100000200320049009000e00498000a005700f5
:10111000110009000d80d80000017800020078005d
:101120004f0778004f06be004f05be004f04be00bb
:1011300000000600ec874700889fbe008a9fbe0023
:101140008c9fbe008e1f7800f0b79f0081bf9f006c
:101150008204780000047800010037000804e800e9
:10116000184778000e00fb00be0107000000e000f9
:10117000faff3a00d0c2b300804f5700050032009a
:1011800000c0e900804f570002003200004778009d
:10119000010037000804e8000900e00045003500c0
:1011a000e18f54004300320040022000808f540041
:1011b00040003c000900e0000e003400f08f5400b5
:1011c0001a003a0000c3b300984f100016003a000e
:1011d0009840900080c7b30080cf500003003200d9
:1011e00080c5b30080cf50000f003a000884e800ab
:1011f0000e003700a900200000c3b300984f100074
:101200000a003a009840900080c7b30080cf500099
:10121000040032008900200080c5b30080cf500058
:1012200002003a000884e80009012000080578005f
:1012300000c3b300010037000a05e8009a4f100010
:10124000fdff32008a0578006066b8000e003700a6
:10125000503c210000425200c4ef9f006149b90098
:101260000c00be00180a07004fea97000401fb00bb
:10127000cf91de008b05e800ccb79f00ddb79f0063
:1012800000064100818649001b00fb005900070051
:101290008000780009017800503c2100c10507005a
:1012a000000278000000e000e9ff3a008b0f5400d4
:1012b00006003a000fb897000000e0002900320055
:1012c000ffb0970001087800260037008a8055009b
:1012d000003a210060c07c000000fb00008050004c
:1012e000160033004240a9000f003c004fe9970070
:1012f0000200fb00cf80de000000560081805e000f
:10130000800f5600818f5e00070039006149b900e7
:10131000d21107004fb19700dfb19700820f500044
:10132000838f5800050032002002200040408800d2
:101330000086eb008086eb0005003700d0c2b300ca
:10134000804f570002003a0060061600e0861e003b
:101350008fb997000300e000030032008b0978008a
:10136000010037006066b8000c00be004f0778002f
:101370004f06be004f05be004f04be00cf00b100b7
:10138000000006008001eb00020037008171780048
:101390008301e800828f5100fcff3a000000060044
:1013a000889fbe0080047800010078000204780065
:1013b000890178001100200009ff0700880f500004
:1013c000010032008004eb00090078004f04be00e9
:1013d000000006000000fa004fb99700e8815700ae
:1013e00081282100009d20003b0b07000080fa00af
:1013f00000000600800078001104b10003003500f1
:101400009101b10001003c000050a0000000060066
:10141000881f7800020478005d040700080040007f
:101420004f047800000006000000fa00881f7800d2
:10143000000478003fb99700ea81570080007800e7
:1014400080a02000240b0700800078000000e0004e
:10145000020035000040eb0000f478000100780045
:101460004f0478000080fa0000000600889fbe004c
:101470008a9fbe0000057800810478002d003700a7
:10148000c900900069009000808f5000040039006e
:1014900009007800000507000000e0003500350075
:1014a000004020001900600009003200a100200067
:1014b0000a00780045050700800578000000e0007c
:1014c000040032000a0050000004e8000400370065
:1014d000800578000a0078008ffd0700000478007e
:1014e000c90190006900900003005000880f50006f
:1014f00002003100000478008005eb00080178004c
:101500008a007800030078002104070008054500e0
:101510004900900000004400c00498000b00e00067
:1015200004003200090078003c0007000000e000e1
:1015300010003a001a04e000d1ff3a0000802000b9
:101540001900600004003200090078003300070031
:101550000000e00007003a0000c020001900600011
:101560000500320049009000e00498000000eb0004
:10157000010037000080eb004f05be004f04be00a5
:1015800000000600889fbe008a1f78008004780053
:101590000104780000457800c100900068009000c8
:1015a000808f50000400390008007800ba0407005a
:1015b0000000e00015003500480090000958780050
:1015c000400498001800780000b8a30004003a0016
:1015d00000a8a30006003200ea4f550004003a00bc
:1015e000080078000d0007000000e00007003a0046
:1015f00000c0200018006000020032004800900087
:10160000600498000a80fb00010037000080eb00b6
:101610004f0578004f04be0000000600889fbe0002
:10162000000478000000e0000e003a00800478001a
:1016300008252100180078000000e00004003200b6
:10164000f6ff07000000e00001003d008084eb0091
:101650000884e80000262100800f54002900320091
:10166000f4ff370000002200180060002400320060
:10167000a80490000800370009015000384090008d
:101680000000fb008900780077fc07000000e00004
:10169000130034008084440048009000808f540080
:1016a000f5ff3900280090004004980018017800e8
:1016b00000c020000000610002003200a80090007d
:1016c00001003700b8009000000024000000610015
:1016d0000a003200610498008004eb000900370022
:1016e000280090004004980060049800500c980076
:1016f0001890a0008084eb0002003700510c980085
:1017000080047800090078004f04be000000060045
:101710000800fa00889fbe00000478001100200035
:10172000b504070080047800e10f40003800320063
:101730000000eb00e18f5400350032000900e000aa
:10174000070032008000eb0008007800aa040700c0
:1017500008007800090001000000eb002c003700b1
:101760006000b8006011b800a0bf9f00b1bf9f002b
:10177000c2bf9f00d3bf9f00e30f5400120032008e
:1017800005003c00e10f54000c003200e20f540051
:101790001a003a000f003700e50f54001000320025
:1017a0006004250051042200e50f540011003500ab
:1017b000e60f540011003a000c00370010242400fa
:1017c000214525000b00370090c42400c1042200ed
:1017d0000800370090e4240041052200050037008e
:1017e0003055240071642500020037004055240064
:1017f00021d52400a0bf9f00b1bf9f00012621007a
:101800006c80570019ff070010002000030007003c
:101810004f04be000080fa000000060000047800bb
:10182000060037008200410030cb8000e1007800e4
:101830000200e80020cb88000100010022cb8000dc
:1018400040cb8000800f5100f6ff3900004c210092
:1018500030cb88002002200040cb880008007800b0
:101860005a0807006900e100040035006d00e1003e
:10187000030034000002b100010032000000050046
:1018800010000500889fbe008a9fbe008c1f780054
:101890000006780081057800100578000a047800b9
:1018a000010037000804e800984478000900fb00b4
:1018b000ecff0700800078000000e000f9ff3a002c
:1018c000d0c2b30080cf540003003a000804e800ff
:1018d0008200200005003700b0c2b30080cf540062
:1018e00001003a000804e8000101780098407800ff
:1018f000e5c6b30085cf500003003200e3c4b30057
:1019000083cf500022003a009840900010c6b300e8
:1019100080cf50000300320010c4b30080cf5000cd
:1019200050003a00a840900085cf500003003200dc
:10193000e0c4b30080cf50004a003a006305440081
:1019400080c2b3009a4f1000020032000a047800ef
:10195000090037000a047800d84478000900fb0029
:10196000330407000000e000fbff3a00f0c5b300bd
:1019700080cf5400f8ff32004200200090c2b30034
:10198000984f100038003a000805e800360037008c
:1019900094c6b30084cf50000300320090c4b3005b
:1019a00080cf500034003a0018409000854f50001e
:1019b00002003200834f50002a003a00a8409000f5
:1019c00060c6b30080cf50000300320060c4b30093
:1019d00080cf500023003a00630544003200b3007a
:1019e0009a40780084cf50000300320090c4b300c6
:1019f00080cf50001c003a0048409000854f5000b6
:101a000002003200834f500017003a00d840900087
:101a100084cf50000300320090c4b30080cf500048
:101a200011003a00e840900040c7b30080cf50005a
:101a30000300320040c5b30080cf50000a003a00d6
:101a4000f840900090c7b30080cf500003003200f0
:101a500090c5b30080cf500003003a0068054400f1
:101a6000010037000001eb000b00e0000400320031
:101a70008a0d7800020037000200a00008057800f7
:101a80000a0e7800020078004f0678004f05be006d
:101a90004f04be0000000600e4874700889fbe0098
:101aa0008a9fbe008c9fbe008e1f780080bf9f0063
:101ab0008104780002077800030678006922b900e3
:101ac000040578008006eb0000c3b3000200370075
:101ad0008904e8001d002000994f1000fcff32002f
:101ae000000eeb003c1678000c0478008005eb003b
:101af000280037008a8f550016003d009200200014
:101b0000110009008205d800010078000000e00003
:101b100003003a0064044400000ceb003814780021
:101b2000a2002000030020001800be00e607070006
:101b3000194178000201fb00cf91de000000410056
:101b4000818049000003b1000180b100008cbe001b
:101b50000d00370010002000010020001c0e400086
:101b60005c9648008a8f550008003a0040c3b300d5
:101b7000994f1000050034001000200001002000e3
:101b8000180c4000589448008b05e8008904e800d0
:101b90001d002000194178000200fb000003b10085
:101ba000e90f5000d3ff36008b0f550001003d00b8
:101bb0008a057800e0c2b300804f510001003a006e
:101bc0008904e8000b00e00007003200290037001c
:101bd0000080eb008080eb001c0e40005c9648000b
:101be0008904e8001d00200000c3b300994f1000d5
:101bf000f7ff32008005eb001e0037008a8f55008a
:101c00001a003d0092002000110009008205d80052
:101c1000010078000000e00003003a006404440082
:101c2000000ceb0038147800a20020000300200014
:101c30001800be00a4070700194178000201fb004c
:101c4000cf91de0000004100818049000003b10017
:101c50000180b100008cbe008b05e8000080eb0025
:101c60008080eb001c0e40005c9648008904e80070
:101c70001d0020001900fb000003b100e90f500017
:101c8000deff360092002000110009008205d80016
:101c9000010078000000e000170032006905100024
:101ca0001802be00e00f5200e08f5a000700320019
:101cb0004250dd00e1702100010040001001be0033
:101cc0000400be0080070700008cbe008a85450026
:101cd0006150b9001c1e10001c9618000600370049
:101ce000e985550090002000010020001c0e4000f6
:101cf0005c96480064045400e88f550004003400ea
:101d00001800be00e00f5000e08f5800f4ff3200d2
:101d10000d00e000330032009940780050c6b30057
:101d200080cf50000300320050c4b30080cf500079
:101d30002c003a008900e80011447800b2c2b300d8
:101d4000824f540005003200d0c2b300804f5400cf
:101d50000200320002447800010037008980e80068
:101d6000810478008006eb006022b8001100370083
:101d7000f00f2e00515f2000800f5200818f5a001b
:101d80000a003c00a2002000030020000400be0066
:101d90004d0707000a01fb00cf91de000002410061
:101da000818249000403b1000580b1008904e80084
:101db0001d002000194578000a00fb000003b10057
:101dc000e90f5000eaff3600d0c2b300804f540044
:101dd00002003a0060021200e0821a001c0e42006b
:101de0005c964a000e00e000040032000d00e000a6
:101df00001003a008fbc9700090f78009200200084
:101e0000110009008205d8004f0778004f06be0078
:101e10004f05be004f04be004f00b1000000060099
:101e2000e8874700889fbe008a9fbe008c9fbe0047
:101e30008e1f780080bf9f00810478000207780021
:101e4000030578006722b900040678008006eb00dd
:101e500000c3b300020037008904e8001d00200021
:101e6000994f1000fcff3200000deb003a1578008e
:101e70000a0478008005eb002c0037008c8f550099
:101e800019003d0072002000811f78001100090038
:101e90008205d80001007800cf0078000000e00043
:101ea00003003a0064044400000ceb00381478008e
:101eb0001801be004418dd00cc11de008301700063
:101ec0004411dd00405c210000805000e15a2100f7
:101ed000614078000000fb00cf80de00001c410064
:101ee000019449000e00370012002000030020007a
:101ef0001a0d41005a9549008c8f550009003a008f
:101f0000405c210000805000e15a210061407800cf
:101f1000e74f500003003400180c4100589449006a
:101f20008b05e8008904e8001d0020009900fb00f3
:101f300062012000405c21009a02070080007800c6
:101f40000000e000cdff3a008b0f560001003d007d
:101f50008c057800e0c2b300994f100001003a00f0
:101f60008904e8000b00e000070032002c00370075
:101f70000080eb008080eb001a0d40005a9548006d
:101f80008904e8001d00200000c3b300994f100031
:101f9000f7ff32008005eb00210037008c8f5500e1
:101fa0001d003d0072002000811f78001100090013
:101fb0008205d80001007800cf0078000000e00022
:101fc00003003a0064044400000ceb00381478006d
:101fd0001801be004418dd00cc11de008301700042
:101fe0004411dd00405c210000805000e15a2100d6
:101ff000614078000000fb00cf80de00001c410043
:10200000019449008b05e8000081eb008081eb0022
:102010001a0d41005a9549008904e8001d0020006e
:102020009900fb0062012000405c21005d02070076
:10203000800078000000e000d8ff3a007200200025
:10204000110009008205d800010078000000e000be
:1020500014003200670010004202dd001801be00cb
:102060000402e900030033000201410083814900ba
:10207000fbff3700028cbe0080854500cf80de006c
:102080001a1d10001a95180006003700e785550044
:1020900070002000010020001a0d40005a954800f1
:1020a00064045400e68f5500040034001800be009c
:1020b000e00f5000e08f5800f4ff32001a00be001d
:1020c0004209dd00ce01de00830171004201dd0026
:1020d000e2b79f00f3b79f00028dbe000d00e00045
:1020e000350032009940780000c7b30080cf50001f
:1020f0000300320000c5b30080cf50002e003a002c
:102100008900e80011447800b2c2b300824f540045
:1021100005003200d0c2b300804f540002003200ec
:1021200002447800010037008980e80081047800cb
:102130008006eb006022b80011003700f00f2e007f
:10214000515f2000800f5200818f5a000a003c002e
:10215000a2002000030020000400be005a06070071
:102160000c01fb00cf91de0000024100818249009a
:102170000403b1000580b1008904e8001d002000bf
:10218000194678000c00fb000003b100e90f500075
:10219000eaff3600d0c2b300804f540002003a007c
:1021a00060021200e0821a006fb09700ffb0970043
:1021b000041d4000059548000e00e00004003200b8
:1021c0000d00e00001003a008fbc9700090f780075
:1021d00072002000110009008205d8004f07780026
:1021e0004f06be004f05be004f04be008f00b10079
:1021f00000000600889fbe008a1f78008c9fbe00ea
:10220000000578000206be000084e800180178008e
:10221000c714de00f90fb20089007800f00f20002b
:10222000808f540006003a00f207b20048003a00de
:10223000100020001a00e000460032004400370081
:102240000900e00007003a000a00780006020700d3
:10225000800078000000e0000200340009007800ef
:102260003c0037006108b9000c0140008d81480036
:10227000e00f2000800f5100e08f5900090034006a
:102280000000200001f82f001800e00002003500d7
:102290000000200001f82700008dbe001000200083
:1022a0002c003700e00f5100e08f5900050034008a
:1022b000f007280018006000c710dd00010c700056
:1022c000210037009800780000002800808260001c
:1022d00001027800f407b2000470a000040c78003a
:1022e00061005100e0805900f70f4000e08f480086
:1022f00004003d00050c7800000deb000000eb0031
:1023000014003700f00f400003003c00040d78007b
:10231000000ceb00700040008001ea000900320070
:102320009a0078008308de007081110018007800a0
:102330000200dd00008d7000180078000300de0050
:10234000000c7800188c72000080eb000100370050
:10235000200020004f06be004f0578004f04be004d
:10236000000006000200fa00889fbe008a1f780065
:10237000000578000204be008000780068805700e5
:10238000e40107001a01be000800be00560a07005b
:10239000008dbe004fb99700cf91de000a00780093
:1023a00094ff07004f0578004f04be000080fa003c
:1023b000000006000400fa00889fbe008a9fbe004d
:1023c0008c1f780090bf9f00a1bf9f000205be0038
:1023d000e00f5100e08f5900660032006011b80034
:1023e000530e07000000e00062003200e00f5500cd
:1023f000e08f5d002e003d0060051500e0851d00aa
:102400000400200005f82300887821000900370027
:102410000a08a300040032001801be000400be0038
:10242000310a07000002be008b05d1000a85d300e7
:1024300064044400e00f5500e08f5d0003003200ab
:10244000c0792100800f5400f1ff3a000401be0062
:102450000000200001f82300e00a07000001be0090
:102460006e805700bfff0700000678000000e00004
:1024700039003d00e00f5500e08f5d003d00320067
:102480000a04be00e2112b00f3a420006e80570066
:10249000b4ff0700000678000000e0002e003d00b9
:1024a00061045400e0845c002e003200f5ff370028
:1024b000e00f5500e08f5d0027003400040020008d
:1024c00005f82300887821000a08a30004003200e0
:1024d0001801be000400be00030a07000002be008f
:1024e0008b85d1000a85d300e00f5500e08f5d0099
:1024f0000400340064044400c0792100800f5400bb
:10250000f1ff3a000401be006e80570095ff0700fe
:10251000000678000000e0000f003d00e00f5500cd
:10252000e08f5d00130034000a04be00e25a2c0064
:10253000d34927006e8057008aff07000006780005
:102540000000e00004003d0061045400e0845c00f1
:1025500004003200f5ff3700000120000c00e0000d
:1025600003003200e10f560002003a008000200014
:102570008e0107001fb89700afb897004f0678008c
:102580004f05be004f04be000080fa0000000600a8
:102590008001eb000200370061f079008301e80060
:1025a000828f5100fcff3a0000000600881f78006f
:1025b0000004eb0000252100100178000200e0007b
:1025c0000c003a008002200052020700000178004f
:1025d0000000e00011003200080044000125210045
:1025e0008230780000082000000978002841980017
:1025f0000a0037001200e00003003a00f0f72f0055
:1026000000097800050037000804e8000080e800b1
:10261000e80f5400e8ff3a000001eb0002007800e8
:102620004f04780000000600889fbe008a1f7800d3
:102630000005780001027800020478000200e00042
:1026400050003200000820009202600022409000fa
:10265000c165210013000900311978008202b10020
:1026600020419800600220000200400020019800f4
:1026700040019800500198004009980060019800be
:1026800050099800700198007600410000099800f8
:10269000944078001200200020c7b30080cf500083
:1026a00009003200a20120006540400080cf5000a8
:1026b00005003200620120007640500080cf5000bb
:1026c000010032000001eb0002807200000c780073
:1026d000e30460000f003a0008007800f2f90700f8
:1026e0000904780027003700180078000058a3007c
:1026f0000f003a000050a000000c780005003700e1
:102700009800780063806000e30f500008003200fa
:10271000638c7000d440780020c6b30080cf500096
:10272000f1ff3200b0c2b30080cf5000f4ff32009e
:102730000a00e0000b0032000401780098007800e5
:102740000a00780045020700304498000004e000c9
:102750000b003d0008007800d3f907000004eb00ef
:10276000080037000304e00004003d000800780082
:10277000cdf907000a0478000200370033449800be
:10278000bff90700080078004f0578004f04be002d
:102790000000060000017800e0c020000000e0001a
:1027a0000800320020cb80000000e000050032006d
:1027b0000000e90020cb88000000400031cb800001
:1027c00002b07800000006000000e0003100320096
:1027d0008080e90091027800e38f52002d003600de
:1027e0000508a3002b003a0072cb80000200e00035
:1027f00002003200828f500004003100020878008d
:1028000071cb880016003700030178009201900018
:102810000300e00002003200818f5100faff39000e
:102820001202780004004100808f50001900390026
:10283000810f500003003a00050942008200780031
:10284000070037000300e00003003200058040006d
:10285000808f51000f0039009300980011019800fb
:10286000110190000200e0000a00320011804000d7
:10287000820f500007003a00c09621000008eb00cc
:1028800011009000110178009008410010009000a4
:102890009000980000000600889fbe0000047800a9
:1028a000c0019000600090008000eb00808f51001c
:1028b000390039001801780020002900000061006b
:1028c000e20f500007003200002020000200e0006c
:1028d0000100350000202400000c71008080eb0016
:1028e0002d0037000100260001006100810f50001b
:1028f00008003a0038009000808f51000500390030
:102900000800780045fb07008080eb000000e00035
:1029100021003a0000c020001800600017003a00b3
:10292000a80490006002200008004000808f54003e
:1029300012003a0000202000760107008000780095
:10294000200498000000e00005003a0029049800e7
:10295000490498000900e800300498000600370098
:102960001860a000400498000020b00030049800d7
:10297000410c9800510c980041f907002800900084
:102980005004980038009000600498000000260071
:10299000180c70008000eb00010078004f04be00ae
:1029a000000006008001eb00040037008301e8000e
:1029b00090cf1000040032000000e800828f510028
:1029c000faff3a000000eb00000006008001eb0077
:1029d00010417800814f510001003a0080017800d9
:1029e0000204e000020032000000e800f8ff3700b7
:1029f0000300780000000600810178000000e90073
:102a0000e50f500007003e00e18f40000500320056
:102a100080004000c08c21006081780003b0780005
:102a2000010037000081eb00020078000000060082
:102a30000003b1000b0035009000b1000800340025
:102a40008000b100070035009001b100040034009f
:102a50007000b100030035009001b10001003c009e
:102a60001000050000000500800178000081e800ea
:102a700092007800000028000083600001007800c8
:102a8000f007b20000097800140020000e003a00a0
:102a9000930078000100e0001b003200010978007b
:102aa0008009780014ff2f000700370001804000e4
:102ab00093007800cf08de00010970001300780051
:102ac000800940000402e90092007800f00720002d
:102ad000808f5000f5ff3600f50f2000050037000d
:102ae0009300d1004f00dd00808970001209d100f1
:102af0000402e80012007800850f5000f8ff3e0045
:102b0000f007b20000097800120973000400780091
:102b100000000600889fbe00800478000184e80061
:102b200000f82700180060004701de00f00f2000c9
:102b3000800f510008003a00800ceb00f0072000e5
:102b40001800600016003a00100020001100e0009c
:102b500014003200120037000200e00005003c00c3
:102b600001007800c0ff0700000178000000e000cd
:102b700008003c00f00728001800600001f0230066
:102b8000010c700020f82f00800c41000080eb0049
:102b900004003700800ceb000000eb000100370060
:102ba000200020004f04be000000060080007800d6
:102bb00065006000030032001002200040408800e1
:102bc0000000060078806000020032002002200031
:102bd00040408800000006000200fa00f1bf9f009c
:102be000010878000080fa00000006000400fa00e6
:102bf000889fbe008a9fbe008c1f7800000478006a
:102c00000106780070089000f80090000100500064
:102c100088089000010050009808900001005000c2
:102c2000a808900001005000b80890000100500072
:102c3000c8089000810550000002220090bf9f004c
:102c400000032300a0bf9f00081090000028a300ed
:102c500018003a000b00e000160034008b047800e6
:102c600009057800e28f5400020036002a00200097
:102c7000020037000900e0000b003400580090000b
:102c8000c80190000a017800ee805700030001009f
:102c9000500498000000e0009600320068089000a0
:102ca00000004500600c98008a8454004240a9004e
:102cb000ebff3c00780190000200e0000b003400c4
:102cc00058009000c80190008c00780003000100bb
:102cd000500498000000e000860032006808900070
:102ce000f800900001004000600c9800880c9000f3
:102cf0000900e0001500340009057800e28f540057
:102d0000020036002a002000020037000900e0001f
:102d10000b00340058009000c80190000a017800b0
:102d2000ec80570003000100500498000000e00010
:102d3000700032006808900000004500600c9800a8
:102d40008a8454004240a900ebff3c00180990001f
:102d50000200e0000b003400e800900058009000f2
:102d6000c801900003000100500498000000e0003a
:102d70006000320068089000980890000100400050
:102d8000600c9800a80c90000900e00015003400c9
:102d900009057800e28f5400020036002a00200066
:102da000020037000900e0000b00340058009000da
:102db000c80190000a017800ec8057000300010070
:102dc000500498000000e0004a00320068089000bb
:102dd00000004500600c98008a8454004240a9001d
:102de000ebff3c00380990000200e0000d003400c9
:102df000e800900018089000808040005800900083
:102e0000c801900003000100500498000000e00099
:102e10003800320068089000b808900001004000b7
:102e2000600c9800c80c90000900e0001500340008
:102e300009057800e28f5400020036002a002000c5
:102e4000020037000900e0000b0034005800900039
:102e5000c80190000a017800ec80570003000100cf
:102e6000500498000000e000220032006808900042
:102e700000004500600c98008a8454004240a9007c
:102e8000ebff3c00081090000028a3001b0032005c
:102e90000b00e000190034008b047800090578006d
:102ea000e28f5400020036002a00200002003700a2
:102eb0000900e0000b00340058009000c8019000a9
:102ec0000a017800ee8057000300010050049800ca
:102ed0000000e00007003200680890000000450094
:102ee000600c98008a8454004240a900030034001a
:102ef000eaff37000080eb00010037000000eb0024
:102f00004f0678004f05be004f04be000080fa0057
:102f100000000600889fbe00e30440000900a100f5
:102f2000808f54004a003600e38f540001003e00b9
:102f30004900200062cb80000200e0000200320065
:102f4000820078000c003700e19621000300370072
:102f5000908f5400230036008080e8001100780034
:102f60000000e000faff3a000f003700908f540095
:102f70001c0036008080e800110078000000e000ae
:102f8000faff3a0012017800e196210003003700b1
:102f9000908f5400130036008080e8001100780004
:102fa000820f5000faff3a0058cb8000890f54007e
:102fb000010031000904780008007800ca01070008
:102fc0000000e00004003a00890f540020003200a5
:102fd0000804d100f5ff370008187800fafd070053
:102fe000d4ff37001101780092017800648051000d
:102ff000890f500003003100120090008008780013
:103000000700370009004100800878009201900015
:103010001300980011007800128814000909780044
:10302000910078000100e0000500320011009000de
:103030000000e000020032000180e80001003700db
:103040000000eb0060cb88000280e8000100370040
:103050000000eb004f04be00000006008001780075
:10306000010178006380600000004000a19221000f
:10307000e10078000228a300010032000130a00026
:103080000238a300010032000190a0000248a30012
:10309000010032000180a0000258a30003003200aa
:1030a00000002800808070000100370001e0a000cf
:1030b00002182000030078004c0207000000fb000b
:1030c000000006002f03b000889fbe008a9fbe004c
:1030d0008c9fbe008e1f78000007780010702100c2
:1030e000c0b79f0080c5b30080cf500008003200f9
:1030f000026f2100c2b79f007740400080cf500090
:1031000003003a0083002000b3b79f000a00370095
:1031100080c7b30080cf500005003200a40020001b
:10312000b4b79f0080c5b30080cf500002003a00c2
:1031300005012000b5b79f003e04be002e05be006d
:1031400040c6b30080cf500003003200654040000d
:1031500080cf50000b003a00e00f5400e08f5c007d
:10316000e00f5d00e08f5d0006003d006000b800ec
:103170006011b80008045000898458000a055900fd
:103180008b855900bfb39700e88f530003003200ce
:10319000f08f530045003a0002003700360020004f
:1031a0000100370046002000e00f5400e08f5c0073
:1031b000e00f5d00e08f5d0005003a005e089000c2
:1031c00081012000a1b79f000000e000080032004c
:1031d0003fb197000200e90008006000cfb19700fe
:1031e0006340780090df9f0074012000a4b79f0027
:1031f000860278008502e900050033008b05d100c6
:103200000a85d3008984d3000884d300f9ff3700ee
:10321000089fbe000a97be00afb397000700e90001
:1032200021fc2f008f804000008240003fb19700ba
:103230008202e90012003700afb397008703e9006c
:10324000a7b79f0000806200cfb09700615278005e
:103250003e00be002e01be00860378008703e90011
:10326000050033008381d1000281d3008180d30027
:103270000080d300f9ff3700009fbe000297be0018
:103280003e00be002e01be00e00f5000e08f58004f
:10329000e00f5900e08f5900d6003400afb397001b
:1032a0000700e000e4ff3c00d2003700ae60900071
:1032b00080c6b30080cf50000b00320006003c00f7
:1032c0000104e000080032006640500080cf50004a
:1032d00073003a0004003700c0c6b30080cf50002e
:1032e0006f003a0031003700080178000800e00064
:1032f00005003a005e08900081012000a1b79f0000
:103300000000e00009003200bfb197001100090081
:103310000381d8008000fd004fb297006440780020
:1033200090df9f0075012000a5b79f00bfb39700f5
:10333000110009000781d80080017800afb0970024
:103340000100e90022fc2f000f01410000024100b2
:103350000c003700bfb29700110009008501d800aa
:1033600000017800afb397008703e900a7b79f007b
:103370000590b90000805100cfb0970061527800ed
:10338000820178000300e000030034002fb19700b1
:103390000200e000efff3c0003007800cf80de0079
:1033a00001017800820178003a0037000806be006b
:1033b000e00f5400e08f5c0005003a005e089000ca
:1033c00083012000a3b79f000000e0000900320045
:1033d0003fb297006121b9000c00be001d0a070032
:1033e000cfb297006540780090df9f007701200002
:1033f000a7b79f003fb297006121b9000c00be0043
:10340000960907000006be00afb297000500e9006c
:1034100027fc2f008f8343008083430097b79f00d2
:10342000110037003fb197006114b9000801be00d8
:103430000c00be00460707000005be00afb19700b4
:103440008301e900a3b79f000801be009e010700a9
:10345000000056001fb29700cfb297006552780067
:1034600094b79f000a06be00e00f5600e08f5e0092
:1034700003003400afb397000700e000e9ff3c0011
:103480004feade00cfa2de000c00be00040178008f
:1034900084017800009fbe000297be0055003700ef
:1034a000e00f5400e08f5c00e00f5d00e08f5d00f6
:1034b00005003a005e08900081012000a1b79f003e
:1034c0000000e0000d0032003fb1970002027800da
:1034d000cfa2de0005037800860378000800be0056
:1034e0000a01be00d30807004fb29700644078007d
:1034f00090df9f0075012000a5b79f003fb19700a6
:1035000002027800cfa2de0005037800860378006f
:103510000800be000a01be00bf080700009fbe00f1
:103520000297be00afb197000300e90024fc2f0012
:103530000f0242000006420020003700bfb2970091
:1035400005047800cfc4de00090578008a057800fc
:103550000802be000a03be005fa89700efa897000c
:103560007fa997008fb19700b6080700d0b79f00da
:10357000e1b79f00f2b79f0083bf9f00afb39700f2
:103580008703e900a7b79f000802be000a03be0038
:10359000ed0b07005faa970000005200cfb2970022
:1035a000655678005fb09700efb097007fb1970045
:1035b0008fb99700009fbe000297be003e00be007c
:1035c0002e01be00d0af9f00e1af9f00f2af9f0081
:1035d00083b79f00e00f5000e08f5800e00f5900c4
:1035e000e08f590003003400afb097000100e00005
:1035f000d2ff3c003fb19700e80f510013003a00a2
:103600000e1090000038a30010003200afb19700f8
:10361000f78f510006003e0024fc2f000f024200ed
:103620008300420000c3b300914f10000700320036
:10363000afb297008502e900a5b79f0000c3b300b1
:1036400027fc2f008f83430080f37a00afb19700ef
:1036500078811100120f98006e00900024fc2f005a
:103660000f02420083004200c9fb07001e099000c0
:103670005e089000800f510006003d0002005000df
:10368000000f98000e1090000040a1000017980055
:103690000f0037000000e0000d003d000e1090000c
:1036a00074006000f00f500009003a007e0890009e
:1036b000fe009000010050008e08900001005000b4
:1036c000020050004240a90001003400000f9800a1
:1036d0004f0778004f06be004f05be004f04be00e6
:1036e0002f03b100000006000000e00003003400da
:1036f000d0000700e10f400001003a000000eb009d
:1037000000000600889fbe008004780066844000a8
:1037100000ff2700180060004401de00f07f200059
:10372000800f51000e003a00800ceb001804780066
:103730006f0064001c003a00210090000000e000cf
:1037400019003a00110090000000e00016003a0055
:10375000100020001100e0001400320012003700b9
:103760000200e00005003c00010078002e00070088
:10377000000178000000e00008003c00f000280094
:103780001800600001fe2300010c700020c02f0013
:10379000800c41000080eb0004003700800ceb003f
:1037a0000000eb0001003700200020004f04be00a5
:1037b000000006000400fa00889fbe008a9fbe0039
:1037c0008c1f78000006780092bf9f00a3bf9f0067
:1037d0000404be000401be001fb89700afb89700f4
:1037e0005b0607000005be000001be000800be0029
:1037f000b50007001fb99700afb99700000051004e
:103800008180590020069800310698000a8ebe007b
:103810000c0078004f0678004f05be004f04be0034
:103820000080fa000000060000017800e601400078
:103830001300780001002800810360006f00600021
:103840008009780012003a00220090000000e00099
:103850000f003a00120090000000e0000c003a0057
:10386000160020001200e000380032000800370087
:10387000e4004100910978000280e8009008780097
:10388000120878000009eb007003530001003700b4
:10389000160020001300e000f5ff3200e4024100b2
:1038a0000282e80011003700800040001500780017
:1038b0004f00de0080897000950078008180400014
:1038c000140078004f00de00808a700094007800b9
:1038d00081804000120078004f00de00008a7000f6
:1038e00012007800000940000603e9001300780088
:1038f000ef0f5000ecff36008282e80064024100c6
:103900000e0037009200d100150078004f00dd0056
:10391000008970009500d100140078004f00dd0090
:10392000808a70009400d100130078004f00dd0001
:10393000008a70009309d1000603e80013007800a4
:10394000ff0f5000efff3e00ef0960009389730006
:10395000060078000000060002027800809fbe008a
:10396000110009008200d800000178004f00be005d
:1039700002a2b9008480500011009800020878006b
:10398000000006000a00fa0011002000b1bf9f00ed
:10399000c0bf9f006a80570000c0da004fb8970090
:1039a0000080fa00000006000a00fa005100200022
:1039b000b1bf9f00c0bf9f006a80570000c0da00ff
:1039c0005fb897000080fa00000006002002e200c5
:1039d00004003d002342ab00020032002302ab0092
:1039e000feff32000040da00feff37000a00fa0056
:1039f0008001eb00b3bf9f00c0bf9f00d1bf9f00fd
:103a0000e2bf9f000080eb00f0bf9f006a8057007c
:103a100000c0da00ffb89700e18f400002003a00d2
:103a20005002200040408800010078000080fa0029
:103a300000000600889fbe0080047800d0cd800082
:103a40000000e00003003a00100007000000e00062
:103a50000a003500d0cd80000900e00002003a00e5
:103a600000047800060037000004780009004000d8
:103a7000060007000000e00001003d000084eb00ac
:103a8000080078004f04be000000060080007800a7
:103a90000000e00004003a0000002000d0cd8800c3
:103aa00001017800060037000081eb0000002000d3
:103ab000808f500002003e00d1cd88000001eb0055
:103ac0000200780000000600020ab900001bb900dd
:103ad0000200b8008100420081004300000006009f
:103ae000889fbe008a9fbe00000478000102780013
:103af00082447800030578008205fb0070c6b3009d
:103b0000804f510021003c0000c0e900804f51006f
:103b1000de003d0072405000804f51004b013200ea
:103b20000d003c006c405000804f51005e013c0095
:103b300000c0e900804f5100d4003d0050c2b300e6
:103b4000804f5100550132007c404000804f5100b1
:103b500055013a00cd00370010c6b300804f510028
:103b6000ca00320004003c0069405000804f510000
:103b70004d013a007200370030c6b300804f51004b
:103b8000180032000040e8000900370000c7b30009
:103b9000804f51001e01320008003c0000c0e900c7
:103ba000804f5100e400320065003c006540500049
:103bb00080cf54003c013a000f00370050c7b300db
:103bc000804f51005e00320063404000804f510042
:103bd0005b00320065405000804f510032013a00d6
:103be0001a0137009180e900010a780078009000fe
:103bf0009171780032013700a8609000c0c6b30010
:103c000080cf50000a003a00940078006480500091
:103c1000000a78001000be004f89de00cf91de0060
:103c20000002be0002037800820378001300370010
:103c300010c7b30080cf500003003200a0c6b3000d
:103c400080cf500006003a00940078006880500051
:103c5000000a78003002be002003be0007003700d3
:103c60001480e900000a7800100078000002780053
:103c7000cfa2de000503780086037800049cbe0016
:103c80000694be00a860900080c6b30080cf5000ac
:103c90000e00320020c6b30080cf500005003a006d
:103ca0000400fb00cf80de00010178008201780073
:103cb0000a00370040c7b30080cf50000300320035
:103cc0006640400080cf500006003a0004007800b3
:103cd000cf80de000101780082017800009cbe00e8
:103ce0000294be003800be002801be00e00f500064
:103cf000e08f5800e00f5900e08f590003003d00ad
:103d000078009000d1c2b3000a003700081090007c
:103d10000018a3000300320078009000b1c2b30085
:103d2000040037000008a300530032007800900020
:103d300001c2b300017578000000e8004d003700b3
:103d4000a8609000c0c6b30080cf500006003a00c3
:103d50009400780064805000000a78001002be00d1
:103d60006033b8001300370010c7b30080cf500095
:103d700003003200a0c6b30080cf500006003a0016
:103d80009400780068805000000a78003002be007d
:103d90002003be00070037001480e900000a780005
:103da00010007800000278000500200006002000c6
:103db00007002000049cbe000694be00a86090008e
:103dc00080c6b30080cf50000e00320020c6b30082
:103dd00080cf500005003a000480fb000100200065
:103de00002002000030020000a00370040c7b30093
:103df00080cf5000030032006640400080cf50006a
:103e000006003a00040078000100200002002000b3
:103e100003002000009cbe000294be000810900029
:103e20000038a300140032003800be002801be0094
:103e3000e00f5000e08f5800e00f5900e08f59006c
:103e40000d00320080c7b30080cf54000300320061
:103e500080c5b30080cf540007003a00780090007e
:103e600001c3b300017578008000e80009f578000f
:103e70000080e80070049800780090000000450081
:103e800060049800894078006d003700a8609000b9
:103e9000c0c4b30080cf500006003a009400780000
:103ea00068805000000a78005001be004000be004b
:103eb000050037009400780064805000000a780004
:103ec0001000be0077080700009cbe000294be00f0
:103ed000380090000000e00003003d0078009000f2
:103ee000d1c2b3000a003700081090000018a300e8
:103ef0000300320078009000b1c2b3000400370024
:103f00000008a300050032007800900001c2b30051
:103f1000017578000000e8007004980078009000b7
:103f200000004500600498008b00780008007800cd
:103f30002201070064003700a8609000c0c6b300eb
:103f400080cf5000250032000a003c006440500041
:103f500080cf50002800320000c0e80080cf500021
:103f6000140032006840500080cf500022003a0018
:103f70000a00370040c7b30080cf50001e00320057
:103f80006640400080cf50001b0032006940500066
:103f900080cf500018003a00060037001480e90076
:103fa000000a780010007800485c9000084878000b
:103fb000450037001480e900000a780010027800fc
:103fc00068089000cf80de0001017800820178004f
:103fd000009abe000292be003b0037001480e90048
:103fe000000a78001001780068089000cf80de0099
:103ff0000089be00340037001480e900000a780010
:1040000010007800680c9000080878002e00370037
:104010001180e9008008780010007800cf80de0071
:104020000101780082017800009cbe000294be006d
:1040300078009000000045006004980081c7b3003c
:10404000080078001ffc07001f0037001480e900fb
:10405000000a780010007800600498005809900069
:104060000200e00002003d00abf20700090037004b
:104070008000eb004bfa0700800078000000e000b1
:1040800003003200680090000080500001003700fb
:1040900058089000100c98000b0037007800900032
:1040a0000275780006003700780090008000450017
:1040b0000904e00001003a0059c2b30089487800c1
:1040c0000000e800700498000000eb004f05be00ff
:1040d0004f04be00000006006200fa00889fbe0088
:1040e0008a9fbe000004be000205780083007800ad
:1040f00060f92f000f004000b7fa070088979f0073
:1041000099979f000000eb00a09f9f009a457800c0
:104110000b80fb000000ea00cf04de0050c2b300b9
:1041200080cf5500020032000904780001003700fa
:104130000904e9000800e0000b0034001f9097001c
:10414000080178008a0078008f9197000300010031
:1041500090979f000000e000930032002f98970096
:1041600000004400a09f9f000905450050c2b30015
:1041700080cf5500040032000b04e000e3ff3a005a
:104180002f989700890037000000eb00809f9f0068
:10419000f0979f00e0979f00d0979f00c0979f00e7
:1041a000b0979f00c09f9f00090037000085210045
:1041b000008050000000400041842100e1007800b0
:1041c0004f98970001007000c09f9f000a05e8000b
:1041d0001a4478008800fb0000852100fff10700e9
:1041e000800078000000e000f0ff3a00a0c2b300b9
:1041f000804f54000e003a00bf8897000180e9000c
:10420000b08f9f0010007800b09f9f000000e0007a
:1042100005003d000000ea00b09f9f004f98970006
:104220000020a000c09f9f000a05e8001000370092
:10423000b19f9f0003fd2f00f4ff27000800370007
:104240003f989700840f5000040032006a00b900c4
:104250000000410003004000b09f9f000a05e800f5
:104260001a01fb0003004100e90f5000f4ff360083
:10427000e0c2b3009a4f1000040032000080eb004f
:10428000909f9f008a0478001c0037008a04e80091
:10429000a0c2b300994f100007003a00bf889700f2
:1042a0000180e900b08f9f0010007800909f9f0070
:1042b0008a84e800110037000000eb00909f9f0007
:1042c00003fd2f00f4ff2700080037001f98970018
:1042d000840f5000040032006a00b9000000410061
:1042e00003004000909f9f008904e8001901fb0033
:1042f00003004100e90f5000f4ff36001944780034
:104300008800fb0020932100b4f107000000e000ca
:1043100002003a0000447800010037008904e800f8
:10432000a87f9f0080c6b300804f540004003a006d
:10433000994f14000a003a0066405000060037000a
:10434000c0c6b300804f540005003a00994f1400d6
:1043500003003a0065404000a07f9f008904e80008
:104360000905e800cbfb2f008b8547001901fb00f6
:1043700060f92f000f0040000084e8008b017800f6
:104380008000780008007800d5fd07000000e000fc
:1043900005003a008b0078000800780013fa070047
:1043a0000000e00059ff3d000080eb004f05be001b
:1043b0004f04be000080fa0000000600cf03b000ea
:1043c000889fbe008a9fbe008c9fbe008e1f780013
:1043d000e0b79f00e1ef9f003004be002005be0063
:1043e000500890000000e00003003d006000200045
:1043f000efb09700d0089800efb0970080fb2f0037
:104400000f004000bffc0700e20f50000d003a0013
:10441000300020006fb1970010099800b0c9b300b8
:10442000efe9970000c0410061862100e14f500094
:1044300001003600a18621006fb297006400900051
:104440000e0037000000e0001000340030002000b3
:10445000efb29700900a9800b0c9b300efe8970058
:1044600000c04000e1862100e14f5000010036000d
:10447000218721006fb197006200900031587800c9
:104480003158780011487800e90037000000e0005a
:1044900005003a0082fb2f000f014100001978004f
:1044a00080027800dc0037006022b8006033b8007a
:1044b0000800be000a01be00190707000000e00066
:1044c00001003d000bf0a2004f98970072592700a1
:1044d0000280b900026a2800130020001c030700b4
:1044e000e4005000c19f9f0015003b00e3801000d6
:1044f000c0ff2f00008660008c01ea00c39f9f0070
:104500002d4321000b0037000c08a30007003200e8
:104510003d02be002d03be000800be000a01be0021
:10452000040707000004be000205be000c86d1008f
:10453000e88646000c00e000f3ff3c001b0037005b
:104540000100e00019003400c0ff2f00008060006f
:10455000c09f9f00000678006000b80002002000a5
:1045600003ff23002d432100070037000c08a300a0
:10457000030032003d02be002d03be00ed06070021
:104580000c86d100e88646000c00e000f7ff3c00f6
:104590000002be000203be000800be000a01be0009
:1045a000590707000004be000205be006fb2970065
:1045b0005409900060c6b300efea970080cf520024
:1045c000040032006100200060c4b30080cf5200bc
:1045d00002003a004f989700ea00400001014100b4
:1045e000d2b79f00f30f51000200340031012000c8
:1045f000d1b79f0000c3b300a07f9f00b2fb2f0084
:1046000002874700320037000800be000a01be00e2
:10461000970707000006be00dfb19700e881510050
:10462000d3b79f004240a9000c003400bc0707002c
:104630000002be000203be000800be000a01be0068
:10464000ba0707006022b80046782d0077192400c9
:10465000b80607000004be000205be006807470058
:10466000860020000e003700a40020000500200076
:104670000c01be007e80570086bf9f004dfc0700e6
:104680001fb09700afb097003fb19700cfb1970030
:1046900004c3b300046741000006be000fbb9700cf
:1046a000e00f5600e08f5e00060034000603e900cc
:1046b000e10f4300ecff3a000200370000c3b300f3
:1046c000006778000603e900fcff3b00680747002d
:1046d000dfb297000500e000070034006022b80058
:1046e0006033b8000800be000a01be009107070051
:1046f0000000e000c4ff3c00a1fb2f000180470048
:10470000000057000002e9004f999700e7004100c0
:10471000b3fb2f000381470000c3b3000300370041
:104720000402e9008100e9000201e800924f100054
:10473000fbff3200c19f9f00efb29700d5099000a8
:1047400060c6b300efea970080cf5200030032004a
:1047500060c4b30080cf520002003a008100e8003c
:104760000a00370050c6b300efe8970080cf500032
:10477000050032008000eb0050c4b300efea970060
:1047800080cf520001003a001100200081824100d8
:10479000850f520001003d00840278000500e00012
:1047a0001d003500848f520005003d00e2c07a00f4
:1047b00096c3b30040c3b30080cf500001003c005b
:1047c00006c3b300050041008000e90085017800c0
:1047d000010037008100e9008301e90011427800ff
:1047e000864f5200fbff32008302e80090c3b30003
:1047f000804f530001003a008448e8000300e000c5
:1048000005003d000201e9008502e8004f9897008d
:104810000000e800c09f9f00efe997008300fb00c5
:104820004f9a9700850178006fb097000600070047
:104830004f0778004f06be004f05be004f04be0074
:10484000cf03b100000006000e00fa00889fbe00f2
:104850008a9fbe008c9fbe000004780081457800ce
:104860008206780083047800040678000300e000e4
:1048700002003c0019002000cd9b210060c6b3005f
:1048800080cf55000e00320060c4b30080cf5500c9
:104890000b00320070c6b30080cf55000300320019
:1048a00070c4b30080cf550082003a00e40f460088
:1048b0008000350058089000800f56007d003d00b4
:1048c0000c05e80060c6b30080cf55001000320030
:1048d00060c4b30080cf55000d0032000810900076
:1048e0000038a30004003a0058089000808f54005c
:1048f00001003d00590c9800580890000a00500033
:10490000500c980002003b000000eb00500c980097
:104910000a00e00027003c001809900068009000a1
:1049200001c3b300017079008201e800130c980004
:10493000580890000000e00003003c0008109000c0
:104940000038a3000500320068009000e1c2b30007
:1049500001f079000280e800100c9800d80890005f
:104960000a00ea00808f500001003d000105ea00c6
:104970000a00ea00200c980001004500500c980045
:10498000890f500001003d0080047800390c980028
:10499000680090009808900001004000090178002c
:1049a0008d007800faf607005808900009005000c2
:1049b0001a00370098089000680090008a8f540011
:1049c00018003d0001004000090178008d007800ca
:1049d000eff607001808900000814400120c9800c0
:1049e00009005500200c9800580890000000e000d5
:1049f00003003c00081090000038a30006003200bd
:104a0000e8009000e0c2b3008070790038089000a0
:104a10000000e800300c980058089000400c980006
:104a200079003700010040000a0178008d0078000d
:104a3000d7f607001808900000014500120c9800f6
:104a40008a845400580890000000e00003003c00f5
:104a5000081090000038a3000500320068009000a4
:104a6000e1c2b300017079000200e800100c980068
:104a700058089000890f500001003d008004780024
:104a80006800900098089000010040008a8046006d
:104a900009017800bef60700180890000080440065
:104aa000100c98005808900009005000200c980045
:104ab0005500370018099000680090003d7079009b
:104ac0008201e800130c98000d027800580890004d
:104ad0000000e00003003c00081090000038a30034
:104ae00017003200e8009000e0c2b30080f07900c7
:104af0008280e800110c9800580890000000e00047
:104b00000f0034008904e900890f500001003d00c6
:104b1000800478006800900000804000090178005f
:104b2000840078009af6070018089000008044007e
:104b3000100c98005808900009005000200c9800b4
:104b40006800900098089000010040000085e8008f
:104b50000b587800800078000c00e000040035005d
:104b6000b0c2b300804878008a057800040037009e
:104b7000d0c2b300804878008a0578000c06ea00ad
:104b80008004eb000a003700a20020008c007800af
:104b90007080570070fb07000fb897009fb8970010
:104ba0007a81540001f17f008904e8000006780052
:104bb0000c00e000f4ff3c000900e00004003200bb
:104bc0000900e900fa805700008040000700370024
:104bd00000c3b300005d78008a0578000500370047
:104be0008904e90002c3b300a05d41000900e000b0
:104bf000fbff3c0068009000980890000100400016
:104c000000805500300c980008109000740060007f
:104c1000f00f50000e003a007800900098089000c5
:104c200001004000a808900001004000b808900072
:104c300001004000c8089000810040007808900002
:104c4000808f500002003d0001005000000c9800d1
:104c50004f06be004f05be004f04be000080fa00a4
:104c6000000006000001be008c0307000470a700ce
:104c700003f0a1006509b100160032000d003500f7
:104c80006828e10006003500f0ff2f00f1ff270043
:104c90000300e00013003b000100280000000500b5
:104ca00000004000818048008502e900fcff3a00d6
:104cb00008003700f88f420002003c008000eb0043
:104cc000000005008100d1000080d3008502e800cb
:104cd000fcff3a000300e00002003b00600010000f
:104ce000e080180000000600889fbe008a9fbe007a
:104cf0008c1f78007e0307008503330003866c0059
:104d00006450e100240032006420e10027003200fa
:104d10006150e100220032006120e10021003200f8
:104d20008b854200eb07b1000134b800003ab800af
:104d30000804420089844a00013ab8000030b800f3
:104d40008880400009014a00040033000000400050
:104d500081804800020149008b05e900c909dd0096
:104d6000830170000100320013002000c814de002f
:104d70004814dd004709de001200b200c808de005a
:104d8000088470007203070001f0a1000cf0a70076
:104d900001f0a000670337006120e10069033200e1
:104da0000801be000200be00f7ff37006150e100bd
:104db000fcff3a0063033700889fbe008a9fbe0055
:104dc000010578000100e0000400350008003c0007
:104dd0000000e000200032000500370060001000f5
:104de000e080180002003b0001f02c001a003700a0
:104df0000004be006011b8006b0920000982cf00da
:104e0000020039000882cf000441b000694252001c
:104e10000e00320008003b008281710061016400d5
:104e20008904d1000884d3008b05e8000442e8001f
:104e3000f9ff3a00050037000804440089844c005b
:104e40008b05e9000442e900fbff3a00400307003c
:104e50000af0a70001f0a0004f05be004f04be00fd
:104e60000000060003f0a200889fbe008a9fbe00db
:104e70008c1f78001e030700250333006450e100f7
:104e80004f0032006420e1005200320003826c00c7
:104e900007003b000905d0000306d000820f540034
:104ea0000c065d0002003900020032008901780022
:104eb000030678008582550004003d000003fd00d4
:104ec0008103fd008502ea008b854200840f720099
:104ed00002003b0060001000e08018006011b80084
:104ee0000005eb007a28e1000a003900060078008e
:104ef000c75ddd00f707b200878075002d00370021
:104f0000828171000a017800610560008180d10012
:104f10000080d3008502e900f9ff3b000604400051
:104f20008784480002003b0060041400e0841c00f9
:104f30000988a300070032008a8171008281710014
:104f4000610164008904d1000884d3008b05e80066
:104f5000170037000978a30013003a000b00e000a7
:104f6000130034008b05e9000804440089844c00d8
:104f70000a4474000978a3000d003a000b00e00019
:104f8000070034008b05e9000804440089844c00c4
:104f900001003a000b0020000978a300f7ff32005f
:104fa0000001eb0002003700828171000a017800e5
:104fb000e70207000cf0a70001f0a000dd023700b7
:104fc0006420e10002003a00838f6c00dd023300b0
:104fd0000801be000200be00d6023700889fbe0056
:104fe0008a9fbe008c1f7800c1020700c8023300f0
:104ff00003866c006450e1002e0032006420e10062
:10500000330032006150e1002f0032006120e100e6
:105010003100320085855500eb07b0000900200003
:1050200008042000050037000804440089844c006f
:105030000a0031000603430087834b000001530040
:1050400081815b00f8ff33000203be000800a0006e
:105050000804440089844c00f6ff3900c639dd009d
:105060008301730001003200130020008904d10085
:105070000884d3000998a300050032000800a700a7
:105080000300a0008904d1000884d3008b05e80048
:105090008904d1000884d3000001eb000281d20012
:1050a000ab02070001f0a1000cf0a70001f0a00086
:1050b000a00237006420e100a20232000801be0015
:1050c0000200be00f7ff37006120e1009d023200c0
:1050d0006000b800f3ff37000000200001f827004f
:1050e000f0ff37000001be006c0207000470a7004b
:1050f00003f0a10003f8a30013003a006509b10012
:1051000010003200090035006928e1000200350076
:1051100001002800000005000000400081804800d8
:105120008502e900fcff3a0000000600f88f42000b
:10513000050035008100d1000080d3008502e80021
:10514000fcff3a00000006008000eb0000000500b4
:10515000839f68000100e00002003d006000100035
:10516000e08018000300e00002003d006001110033
:10517000e0811900390207004f00e00002003b0007
:1051800060001000e080180000000600f4ff2f000f
:1051900095023700811f78000100e00002003d0009
:1051a00060001000e08018000300e00002003d00f5
:1051b00060011100e0811900a60207004f00e00025
:1051c00002003b0060001000e080180000000600b4
:1051d000889fbe008a9fbe008c1f78000004be001e
:1051e0002e0207000478a30026003a006120e100a7
:1051f0002500320009f8a30025003a006420e100f0
:1052000021003200f507b1000508a30002003200ba
:1052100000004000818048006044b8000310200076
:105220000200200000004000818048000805440082
:1052300089854c000a0541008b8549000a0550000c
:105240008b855800030033000a00be00020474007e
:10525000838474008301d1000281d300830f710025
:10526000f0ff3a008904d1000884d30060014900ae
:1052700082017800c1adde00fb07b00034020700f8
:105280002c0237000960a0000800be002902370088
:105290001202200042408800f0ff2f00f1ff27009b
:1052a000240237000c00fa00889fbe008a9fbe00cf
:1052b0008c9fbe000e0207000206be008405780027
:1052c0000200be00020020006502070005003a004f
:1052d0008b02b300120020006102070001003a00b7
:1052e000f8856d000c01be00c60007000800be0076
:1052f0009b0032000b08a3009e003a000df0a700af
:105300000be0a00009f0a7000bf0a00009f0a1003d
:105310000801be00bb0007000bf0a600950032009c
:1053200001003c000bd0a0008acf7500b200330012
:105330006000b8006250e10099003900a1003e0011
:105340000b28a300a2003a000bf8a30006003200cd
:105350000b58a300a70032000801be00a9000700f7
:105360000800be00940032000800be00630207007f
:105370000004be00050578000bf0a7000b30a60066
:105380000bf0a1005b079800324f200053f323007d
:105390006702070005003d000800be001200200063
:1053a000650207000004be000a05e9004a079800ec
:1053b0006150b90080fe0700008fbe000c01be00e6
:1053c00049fe070027fe0700300798000100e000b3
:1053d00002003d0060001000e0801800f2ff27008e
:1053e000820f5000e08f580064003e000c00be00a9
:1053f0001cfe070020079800f2072000820f5000d3
:10540000e08f580005003c0012f82f00f3ff2f003a
:10541000820f5000838f580009003d000a00e00011
:105420000300320001003c000201ea00020578009e
:105430006000b800200798003a079800190037006c
:105440003e0090006100b9005bfe0700809fbe0037
:105450000c00be004109dd004811de007208b100f9
:10546000ff0107000005be001e01be001efe070072
:105470004f01be007bfe0700809fbe000c00be00f7
:105480000a01be0077fe07001e01be0016fe0700df
:105490004f01be0074fe07008221270013f3230092
:1054a00011fe07000005be002e0090006100b9004b
:1054b00041fe070001f0a2000c01be006afe0700d9
:1054c0000006be000800be003d0207000c01be0041
:1054d00005fe07000a01be0063fe0700809fbe00b4
:1054e0004a0007002e0590000af0a7000a05ea000e
:1054f000050037000800be000801be00fafd0700e5
:105500000004be000c00be000801be000a00a70097
:10551000f5fd07000006be000a05d100f5ff3a00c0
:105520005e01900002e0a600030037000001be000b
:1055300036000700a9fe07000004be004f00be00b1
:10554000760207000801be00e7fd07003e0190005b
:10555000f9010700de0590000bf0a70001f0a200a2
:105560004f06be004f05be004f04be000080fa008b
:105570000000060025000700f9ff3700270007009c
:105580006000b8000bd0a7000bc0a0000be0a70084
:105590000bc0a2000bc0a70001f82700f0ff3700e6
:1055a0000df8a300020032001e00070019000700da
:1055b0000bf8a300eaff32000b30a70001f0a200b5
:1055c000e7ff37000df8a300f9ff3a00f7ff3700b7
:1055d0000801be000b000700e6ff320001003c009e
:1055e0000df0a2006000b8000df0a7000900070050
:1055f000dbff37000b000700f1ff2700f0ff2f0053
:10560000d7ff370001000700c901370001f8230068
:105610000000050001f8270000000500200220001e
:105620000100370010022000404088000000060002
:10563000881f7800000478005001be004000be00c2
:105640000400400085804800060149008781490028
:10565000009cbe000294be000400e1000588e10049
:105660000690e1000798e100020031006800440064
:105670001008e8004f04780000000600f487470097
:10568000889fbe008a9fbe008c9fbe008e1f780040
:105690000205be000004be00d4b79f00e5b79f001e
:1056a000f6b79f0087bf9f000000eb00c0b79f00c8
:1056b000b0b79f00a0b79f0090b79f0080b79f0032
:1056c0000d042000bfb097004fb0970000014000cc
:1056d0000000e0000f003d004f08de0000007100f8
:1056e000c0b79f009e00070001003d00120020008f
:1056f000a100070001003d0012002000a6000700e5
:10570000b1000700b60007000f004000c8ff070007
:10571000220037004f08de0000067100ccb79f0062
:105720008f00070001003d001200200092000700da
:1057300001003d001200200097000700a2000700b2
:105740000fb297009fb297002fb39700bfb3970097
:10575000a90007000000520081805a0002015b008e
:1057600083815b0080b79f0091b79f00a2b79f0025
:10577000b3b79f000007eb009f0007000020e10087
:1057800001a8e10002b0e10003b8e100010031002e
:105790001e0020000e005600c0b79f004fb29700b9
:1057a0000400e00007003500100020000100200088
:1057b0006011b80008047000898470000a05710047
:1057c0008b8571008d06e900beff3a000400e00001
:1057d00003003d00820007000f00400094ff070017
:1057e0004fa897000000e00004003a000fb49700b3
:1057f0009fb497002fb59700bfb59700940007009e
:105800004f0778004f06be004f05be004f04be0094
:105810004f01b10000000600881f7800180020002a
:10582000881f780095ff07008f87e9004f047800f4
:1058300000000600801feb0090ff07008f87e90043
:1058400000000600889fbe008a9fbe008c1f780063
:105850006e00070007003d0073000700e00f5b00cb
:10586000e08f5b0007003d00320007000006eb0000
:10587000040037003400070002003d002a00070042
:105880001c00200072000700e3ff07000203be00b7
:105890000002be000c00e000010032002200070000
:1058a0000400be000601be004f0678004f05be0092
:1058b0004f04be0000000600889fbe008a9fbe0005
:1058c0008c1f78005100070005003d0056000700be
:1058d000e00f5b00e08f5b0006003d000400370036
:1058e0001900070003003d006000b8006011b80017
:1058f0001000070056000700ceff07000203be009d
:105900000002be000c00e0000100320006000700ab
:105910000400be000601be004f0678004f05be0021
:105920004f04be00000006006000b8006011b8001f
:105930000000370004025000858258000603590019
:1059400087835900000006000006eb00e00f5200bc
:10595000e08f5a00e00f5b00e08f5b000000060064
:105960000180400090b79f000001eb008fb09700ce
:105970000100e000000006000200700090b79f00e8
:105980000180400080b79f000001eb00ffa8970056
:105990000100e000000006000200700080b79f00d8
:1059a000018040006faa9700cf20de000100700048
:1059b000f0af9f0004024200250007004f18de00f0
:1059c0000002720000000600e4af9f0008044400db
:1059d00089844c000a054d008b854d0000000600af
:1059e0003fb29700cfb297005fb39700efb3970035
:1059f00000fe2f00000006003fb09700cfb09700d8
:105a00005fb19700efb19700000006000205be00ed
:105a10000004be00e00f5000e08f5800e00f590076
:105a2000e08f5900000006006000b8006011b80067
:105a300008045000898458000a0559008b855900d4
:105a40001c002000e00f5200e08f5a00000006000a
:105a50000800be000a01be00000006006022b80077
:105a6000060220000000d0008180d2000482d20013
:105a70008582d2000000a0000202520083825a00f8
:105a8000030031000202420083824a000000a100ac
:105a90000603e900f3ff3a0000000600c70ade0033
:105aa000f107b200f50fb20008003200e1cf42006a
:105ab000020032000170a00024000500810f700078
:105ac000010032000408050044000500810f700049
:105ad00002003a00140005008502e90000004000c1
:105ae00081c04800fcff3b000170a00024000500bd
:105af0000004be00e9ff07000003be000405be006d
:105b00000200be00e5ff0700844f7500000006009c
:105b10000200be006450e100050036006420e10090
:105b2000020036000968a30001003a000800be0028
:105b30000160a0004f0678004f05be004f04be0074
:105b400000000600f0ff2f00f1ff2700f9ff3700eb
:105b500081002000618055000b003d000b002000fb
:105b600061fe2f000100e1001d0034008281710000
:105b7000610164008904d1000884d3000000e800ba
:105b8000faff3a0071002000610064000300700019
:105b9000020060000900320061044400e0844c000f
:105ba0000988a500050032008b05e8006808e100bf
:105bb00002003a008904d1000884d300f20f2000cb
:105bc0000258e10005003d00c75ddd00f907b200a5
:105bd0008980750008007800000006000bf8270097
:105be0008b00780000000500889fbe008a9fbe00e1
:105bf000841f7800beff07004f00780011003300bb
:105c0000f0ff2f00838f6c0006003b000405650049
:105c10000a00a7000800370009f0a60010002000c5
:105c200008003700820f5400838f5c0003003900a6
:105c30001000200001003e000000200009f0a70035
:105c40000000ea004f05be004f04be000000e00067
:105c50000000060081ff07000400be0000000600ef
:105c6000889fbe008a9fbe000003be008bff070016
:105c70008505780082815200020020006220e10048
:105c800004003a00f307b100040035007718e10082
:105c9000040035000600be00140037006000b800a4
:105ca0000f003700f50f2000faff2f008502d1000a
:105cb0000a85d3008301e900fcff3b008184620078
:105cc00000046500890f7400f2ff32008582ea004b
:105cd0000a85ea0081846200000465009cff0700d9
:105ce00007f0a70001f0a0000081eb000200e00037
:105cf0004f05be004f04be00000006000003be00ba
:105d000066ff07006220e100020032000600be00cc
:105d100005000500e507b100f107b20004f023001b
:105d20008480700007f0a70001f0a00024000500a7
:105d300014002000acff37000003be0057ff07002f
:105d40006220e100020032000600be0000000600f2
:105d500085024100e30f20000328e10005003c001c
:105d6000a3fe2f000328e10007003d0005002000ee
:105d700001003700f50f200020022000404088007d
:105d80006000b80008003700130020008381520033
:105d900005003d008100d1000080d3008301e800b0
:105da000fcff3a0005002000c72add00f107b20021
:105db0008580700007f0a70001f0a0000000060039
:105dc000889fbe008a9fbe008c9fbe00cbff07004d
:105dd000850478000005be006420e10049003e0013
:105de0006220e10003003200090035000bf8a30037
:105df000440032000bf8a30008003200100220001b
:105e000040408800f0ff2f00f1ff27003d003700e1
:105e100001f82f00000020003a0037003d00070085
:105e200010fc07000006be000a00be00324f200032
:105e300053f32300d5fc0700060034000c00be001d
:105e40003400070007fc07000006be000a00be0081
:105e5000020037008904e9000c00be002d00070095
:105e6000a1fb07002b000700fffb07000001be009d
:105e70000c00be0059fc07000005be000001be007a
:105e800099fb07000006be00a2f32300430d2c007f
:105e9000f5fb0700809fbe000c00be00d2e3270088
:105ea000d3f02b0090fb07004f01be004bfc070016
:105eb0000006be000a01be008bfb07000a01be00ff
:105ec000e9fb07000006be006148b900bafb070005
